:100000004AC264C263C275C461C260C236C45EC201
:100010005DC200C35BC25AC259C258C29DC456C217
:1000200055C254C253C288C389C38AC38BC38CC30D
:100030008DC38EC38FC390C391C391C5A5C5DEC5C3
:1000400051C6EBC54FC6F3C5FCC54CC623C620063A
:10005000EE007505EE002006EE009704EE00A40306
:10006000EE009704EE001003DC012006EE0075059B
:10007000EE002006EE009704EE00A403EE009704C5
:10008000EE001003DC012006EE00E006EE0049075A
:10009000EE00200677004907EE00200677004907AA
:1000A000EE00E006EE0075057700E006EE0075054F
:1000B0007700E006EE002006EE007505EE009704DE
:1000C000EE007505EE002006DC01000000000000D7
:1000D0000000000000000000000000000000000020
:1000E0000000000000000000000000000000000010
:1000F0000000000000000000000000000000000000
:1001000000000000000000000000000000000000EF
:1001100000000000000000000000000000000000DF
:1001200000000000000000000000000000000000CF
:1001300000000000000000000000000000000000BF
:100140000000000000001003F0006E02F0006E02DC
:10015000F0006E02F0006E02F0006E02E0014B0251
:10016000F0004B02F000BA02F000BA02F0006E029A
:10017000F0004B02F0004B02E0010B02F0000B021A
:10018000F0000B02F0000B02F0000B02F0000B027B
:10019000F000A403F0006E02F0001003F000100362
:1001A000F000BA02E0011003F0003F03F00010037A
:1001B000E00100000000000000000000000000005E
:1001C000000000000000000000000000000000002F
:1001D000000000000000000000000000000000001F
:1001E000000000000000000000000000000000000F
:1001F00000000000000000000000000000000000FF
:1002000000000000000000000000000000000000EE
:100210000000000000000000000000000000970443
:10022000E0017505E0019704F0009704F000700309
:10023000E0019704E0017505E0019704F0009704E0
:10024000F000A403E0011003E001A403E001700347
:10025000F0007003F0009302E0017003F00010035F
:10026000F000BA02F0001003F0007003F00000008C
:10027000F0007003F0000000F0009704E001750545
:10028000E0019704F0009704F0007003E001970488
:10029000E0017505E0019704F0009704F000A40365
:1002A000E0011003E001A403E0017003F00070031B
:1002B000F0009302E0017003F0001003F000BA02B6
:1002C000F0009302F0004B02F0000000000000007C
:1002D000000000000000000000000000000000001E
:1002E000000000000000000000000000000000000E
:1002F00000000000000000000000000000000000FE
:1003000000000000000000000000000000000000ED
:1003100000000000000000000000000000000000DD
:1003200000000000000000000000000000000000CD
:1003300000000000000000000000000000000000BD
:1003400000000000000000000000000000000000AD
:10035000000000000000000000000000000000009D
:10036000000000000000000000000000000000008D
:100370000000000000000B02F0006E02F00010030D
:10038000F0006E02F000BA02E0016E02F0004B02D3
:10039000F0001003E001BA02E0010B02C0036E029C
:1003A000F0001003F000A403F000A403F000170411
:1003B000E001A403F0003F03F0001003C00370034A
:1003C000E001DC03E0019704F0001704F0001003E3
:1003D000C0034B02F0000B02F0001003F000BA0261
:1003E000F0003F03C003A403F0003F03F00010033C
:1003F000E001BA02F0006E02F0001003E001BA0260
:10040000E0010B02C003000000000000000000003B
:1004100000000000000000000000000000000000DC
:1004200000000000000000000000000000000000CC
:1004300000000000000000000000000000000000BC
:1004400000000000000000000000000000000000AC
:10045000000000000000000000000000000000009C
:10046000000000000000000000000000000000008C
:10047000000000000000000000000000000000007C
:10048000000000000000000000000000000000006C
:1004900000000000000011241FBECFE5D4E0DEBF45
:1004A000CDBF10E0A0E6B0E0E2E0F3E102C00590CD
:1004B0000D92AC36B107D9F720E0ACE6B0E001C050
:1004C0001D92A539B207E1F7D5D219C799CDCF92C0
:1004D000DF92EF92FF92CF939B01AC0160E074E258
:1004E00084EF9AE45FD56B017C01C1E020E030E04D
:1004F0004FE753E4C701B6019BD61816CCF5C330BD
:10050000A9F048F4C13069F0C23081F520E030E054
:1005100040E85EE30FC0C53049F040F0C63081F0DE
:1005200025C020E030E040E05EE304C020E030E0A1
:1005300040E05FE3C701B6017FD66B017C0116C0C6
:1005400020E030E040E85EE3C701B60175D66B01FC
:100550007C0120E030E04FE753E46AD6181634F40B
:10056000C12CD12C8FE7E82E83E4F82ECF5FBECFCD
:10057000C701B6017FD563BD88E085BD14BCC860E6
:10058000C5BDCF91FF90EF90DF90CF90089585305B
:1005900018F48093720004C01092720010926C00E4
:1005A000109271001092700010926F0010926E0005
:1005B00008951092720010927100109270001092C3
:1005C0006F0010926E0010926C0008958091890067
:1005D0008F5F843018F48093890002C010928900E4
:1005E0008FEF82BB88B3807F88BB28B381E090E027
:1005F0000090890002C0880F991F0A94E2F7822BAD
:1006000088BBE0918900F0E0E257FF4F8081809540
:1006100082BB08951F920F920FB60F9211242F9351
:100620003F934F935F936F937F938F939F93AF937A
:10063000BF93EF93FF93CADFFF91EF91BF91AF910B
:100640009F918F917F916F915F914F913F912F91EA
:100650000F900FBE0F901F901895AF92BF92CF9240
:10066000DF92EF92FF920F931F93CF93DF938091CE
:100670007400813099F058F08230B9F0833011F570
:1006800080917A008093920080917B0017C08091C6
:1006900079008093920080917A0010C08091770059
:1006A000809392008091780006C0809175008093BD
:1006B0009200809176008093930004C08093930011
:1006C00021E001C020E0309192005AE0832F652F95
:1006D00059D480938A0046EF849F300D11243093C3
:1006E0008B0030919300832F4DD480938C00849F96
:1006F000300D112430938D00CAE8D0E0AEE8B0E0B0
:100700009FE63FE717E00DE78DE6F82E46E6E42E7C
:100710005FE4D52E6BE5C62E76E0B72EEFE3AE2E66
:1007200084E08A0FE9914E2F50E04A305105C0F421
:10073000FA01ED5EFF4F0994AC9213C0BC9211C058
:10074000CC920FC0DC920DC0EC920BC0FC9209C0A1
:100750000C9307C01C9305C03C9303C09C9301C03D
:100760001C9211968A13DECF222321F080917B0008
:1007700080FF0AC0809190008068809390008091F3
:100780009100806880939100DF91CF911F910F912C
:10079000FF90EF90DF90CF90BF90AF900895CF92F1
:1007A000DF92EF92FF926B017C0120E030E0A90123
:1007B000F5D3811109C088E085BD8FEF83BDFF901F
:1007C000EF90DF90CF900895C701B601FF90EF90B2
:1007D000DF90CF907CCE80917B008F5F8C3318F4BC
:1007E00080937B003EC010927B0080917A008F5FE7
:1007F0008C3318F480937A000CC010927A008091A8
:1008000079008F5F883118F48093790002C01092CC
:100810007900C59B0FC090917A0080917800981361
:1008200009C09091790080917700981303C080915E
:10083000610010C0C49B10C090917A008091760036
:1008400098130AC09091790080917500981304C0A4
:10085000809160009CDE05C080916C00811101C018
:10086000A8DE80917300882339F081508093730053
:10087000811102C010927400F0CE1F920F920FB639
:100880000F9211242F933F934F935F936F937F9316
:100890008F939F93AF93BF93EF93FF939CDFFF9151
:1008A000EF91BF91AF919F918F917F916F915F91E8
:1008B0004F913F912F910F900FBE0F901F90189561
:1008C00080916200882321F0AD9902C0AD9A01C0E9
:1008D000AD9880916E0090916F00892B49F08091C6
:1008E0006E0090916F00019790936F0080936E005F
:1008F00008951F920F920FB60F9211242F933F93DA
:100900004F935F936F937F938F939F93AF93BF9317
:10091000EF93FF93D5DFFF91EF91BF91AF919F913F
:100920008F917F916F915F914F913F912F910F9098
:100930000FBE0F901F90189581E080938000E0918A
:10094000880085B1F0E0EC56FF4F8083109288005C
:1009500080E287B9369A08951F920F920FB60F92D0
:1009600011242F933F934F935F936F937F938F93B4
:100970009F93AF93BF93EF93FF93DEDFFF91EF91D0
:10098000BF91AF919F918F917F916F915F914F91A7
:100990003F912F910F900FBE0F901F90189580914F
:1009A00094002091860030918700280F311D3093EC
:1009B00087002093860080918400909185000196A5
:1009C00090938500809384008F3F910509F008F48F
:1009D0004EC0232F3327109287001092860010926A
:1009E0008500109284002A303105B8F02F3131058E
:1009F000B0F02333B0F02734B0F02B35B0F02F3601
:100A0000B0F02338B0F02739B0F02D3AB0F0233CE5
:100A1000B0F02A3DB0F08BE015C080E013C081E05B
:100A200011C082E00FC083E00DC084E00BC085E000
:100A300009C086E007C087E005C088E003C089E000
:100A400001C08AE090918300981739F08093830069
:100A500010928200109281000AC09091810094301F
:100A600020F49F5F9093810002C080938200809168
:100A70008200089518BA8FE387BB15BA80E284BB61
:100A80009FEF92BB91BB92E093BF12BE1FBC9CE054
:100A90009EBD1DBC1CBC17BC16BC9AE79BBD99E152
:100AA0009ABD19BC18BC12BC15BC14BC13BC15BE35
:100AB00091E999BF90E898B910BE87B98EEC86B9D4
:100AC0007894D5E0F3E0EF2EC1E012E0A8E0FA2E32
:100AD0000FEF80918000882309F410C160DF8093BC
:100AE0007F00882349F120917D0030917E002F5FA7
:100AF0003F4F30937E0020937D0080917C008823BF
:100B000059F0813021F42A38364130F412C0823055
:100B100081F4233A354068F08F5F833018F4809376
:100B20007C0002C010937C0010927E0010927D0029
:100B300009C010927F0006C010927E0010927D00C6
:100B400010927C00E0917F008E2F90E0FC013297A4
:100B5000EA30F10508F0C6C0E35EFF4F099429DDD5
:100B600080917400813071F028F0823009F0BAC0B1
:100B7000C4984EC0C59B02C0C598B4C0C49BB2C047
:100B8000C498B0C0C59844C0C0936C0080917400F4
:100B9000813089F018F08230F9F0A4C080916D00A6
:100BA0008F5F853018F480936D0002C010926D0045
:100BB00080916D0021C090917200992351F0909125
:100BC00061009F5F953018F49093610002C080939C
:100BD00061008091610010C080917200882351F003
:100BE000809160008F5F853018F48093600002C0B0
:100BF000C093600080916000CADC74C08091740072
:100C0000823031F010937400D0937300C49A6AC09C
:100C1000109274001092730065C08091740081304E
:100C2000B9F3C0937400D0937300C59A5BC08091F0
:100C30007400833019F41092740054C0E092740070
:100C400051C080917400813079F018F08230B9F091
:100C500049C080917A008F5F8C3318F480937A00BA
:100C600041C010927A003EC0809178008F5F8C3333
:100C700018F48093780036C01092780033C08091C9
:100C800076008F5F8C3318F4809376002BC010921F
:100C9000760028C080917400813079F018F082309D
:100CA000B9F020C0809179008F5F883118F480936B
:100CB000790018C01092790015C0809177008F5F7D
:100CC000883118F4809377000DC0109277000AC025
:100CD000809175008F5F883118F48093750002C091
:100CE0001092750080917F00882331F0B6DC8091EE
:100CF00073008111D09373001092800020917200D4
:100D0000222309F438C180916E0090916F00892BE5
:100D100009F031C1E22FF0E0EE0FFF1FEF59FF4F56
:100D200080819181880F991F0197409170005091A7
:100D300071008417950720F41092710010927000D2
:100D40008091700090917100223009F446C018F42F
:100D5000213041F007C1233009F489C0243009F45F
:100D6000C1C000C1880F991FFC01EA58FC4F608187
:100D700071816115710509F12093620080E090E0B6
:100D8000A5D10DDDC0907000D0907100F601EE0F7E
:100D9000FF1FE858FC4F6081718180E090E096D1A0
:100DA00020E030E04AE754E4FDD04B015C01F6015D
:100DB000EE0FFF1FEA58FC4F3AC01092620060E04D
:100DC00070E08AE794E483DBE0917000F0917100B9
:100DD000EE0FFF1FE858FC4FBFC0880F991FFC01A2
:100DE000E25EFD4F608171816115710581F1C093F3
:100DF000620080E090E06AD1D2DCC0907000D090B8
:100E00007100F601EE0FFF1FE05EFD4F6081718102
:100E100080E090E05BD120E030E04AE754E4C2D0CB
:100E20004B015C01F601EE0FFF1FE25EFD4F60819A
:100E3000718180E090E04AD19B01AC01C501B40111
:100E4000FBD118D170936F0060936E008BC010922D
:100E5000620060E070E08AE794E439DBE0917000C2
:100E6000F0917100EE0FFF1FE05EFD4F75C0880F1F
:100E7000991FFC01EA5BFE4F60817181611571056C
:100E800009F1C093620080E090E020D188DCC0903E
:100E90007000D0907100F601EE0FFF1FE85BFE4F6F
:100EA0006081718180E090E011D120E030E04AE77C
:100EB00054E478D04B015C01F601EE0FFF1FEA5BB2
:100EC000FE4FB5CF1092620060E070E08AE794E4D4
:100ED000FEDAE0917000F0917100EE0FFF1FE85B09
:100EE000FE4F3AC0880F991FFC01E25BFF4F608103
:100EF00071816115710509F1C093620080E090E095
:100F0000E5D04DDCC0907000D0907100F601EE0F7E
:100F1000FF1FE05BFF4F6081718180E090E0D6D0E1
:100F200020E030E04AE754E43DD04B015C01F6019B
:100F3000EE0FFF1FE25BFF4F7ACF1092620060E07E
:100F400070E08AE794E4C3DAE0917000F0917100F8
:100F5000EE0FFF1FE05BFF4F8081918190936F0048
:100F600080936E0080917000909171000296909332
:100F7000710080937000809172008111AACDF5BC40
:100F800003BDA7CD991B79E004C0991F961708F0FF
:100F9000961B881F7A95C9F780950895D4D008F4D8
:100FA00081E008950CD00AC102D140F0F9D030F0B0
:100FB00021F45F3F19F0EBC0511134C1EEC00FD1E5
:100FC00098F39923C9F35523B1F3951B550BBB2710
:100FD000AA2762177307840738F09F5F5F4F220FBD
:100FE000331F441FAA1FA9F333D00E2E3AF0E0E8B6
:100FF00030D091505040E695001CCAF729D0FE2F02
:1010000027D0660F771F881FBB1F26173707480793
:10101000AB07B0E809F0BB0B802DBF01FF27935849
:101020005F4F2AF09E3F510568F0B1C0FBC05F3FA3
:10103000ECF3983EDCF3869577956795B795F79531
:101040009F5FC9F7880F911D9695879597F9089529
:10105000E1E0660F771F881FBB1F621773078407C5
:10106000BA0720F0621B730B840BBA0BEE1F88F7D4
:10107000E0950895BCD088F09F5790F0B92F99273C
:10108000B751A0F0D1F0660F771F881F991F1AF093
:10109000BA95C9F712C0B13081F0C3D0B1E008955C
:1010A000C0C0672F782F8827B85F39F0B93FCCF3DD
:1010B000869577956795B395D9F73EF49095809589
:1010C000709561957F4F8F4F9F4F0895E89409C0A9
:1010D00097FB3EF490958095709561957F4F8F4F6B
:1010E0009F4F9923A9F0F92F96E9BB279395F69581
:1010F000879577956795B795F111F8CFFAF4BB0FFF
:1011000011F460FF1BC06F5F7F4F8F4F9F4F16C062
:10111000882311F096E911C0772321F09EE8872FEC
:10112000762F05C0662371F096E8862F70E060E0A8
:101130002AF09A95660F771F881FDAF7880F969521
:10114000879597F90895990F0008550FAA0BE0E8C5
:10115000FEEF16161706E807F907C0F01216130679
:10116000E407F50798F0621B730B840B950B39F4B9
:101170000A2661F0232B242B252B21F408950A261F
:1011800009F4A140A6958FEF811D811D089597F95F
:101190009F6780E870E060E008959FEF80EC08951D
:1011A00000240A9416161706180609060895002446
:1011B0000A9412161306140605060895092E0394C0
:1011C000000C11F4882352F0BB0F40F4BF2B11F434
:1011D00060FF04C06F5F7F4F8F4F9F4F089557FD93
:1011E0009058440F551F59F05F3F71F04795880F95
:1011F00097FB991F61F09F3F79F08795089512162C
:1012000013061406551FF2CF4695F1DF08C01616D7
:1012100017061806991FF1CF869571056105089488
:101220000895E894BB2766277727CB0197F908959F
:101230008ADF08F48FEF08950BD0C0CFB1DF28F01C
:10124000B6DF18F0952309F0A2CFA7CF1124EACF7B
:10125000C6DFA0F3959FD1F3950F50E0551F629F15
:10126000F001729FBB27F00DB11D639FAA27F00DFF
:10127000B11DAA1F649F6627B00DA11D661F829F26
:101280002227B00DA11D621F739FB00DA11D621F0B
:10129000839FA00D611D221F749F3327A00D611D28
:1012A000231F849F600D211D822F762F6A2F11240A
:1012B0009F5750408AF0E1F088234AF0EE0FFF1F5D
:1012C000BB1F661F771F881F91505040A9F79E3F94
:1012D000510570F05CCFA6CF5F3FECF3983EDCF396
:1012E000869577956795B795F795E7959F5FC1F7D1
:1012F000FE2B880F911D9695879597F90895F89480
:02130000FFCF1D
:0C1302000201014800560036003E0000C9
:00000001FF
